S0120000756C747261736F6E69632E73726563CE
S11300000C9434000C9446000C9446000C94460066
S11300100C9446000C9446000C9446000C94460044
S11300200C9446000C9446000C94F2000C94460088
S11300300C9446000C9446000C9446000C94460024
S11300400C9446000C9446000C9446000C94460014
S11300500C9446000C9446000C9446000C94460004
S11300600C9446000C94460011241FBECFEFD8E038
S1130070DEBFCDBF21E0A0E0B1E001C01D92A530FC
S1130080B207E1F70E94BB000C9470010C940000CD
S1130090E0ECF0E0908195FFFDCF8093C6000895D9
S11300A09093C5008093C400E0ECF0E080818D7FE4
S11300B0808388E18093C10086E08093C200089524
S11300C0CF93DF9300D000D000D0CDB7DEB79E83AE
S11300D08D832D813E81002436952795079436958E
S11300E027950794322F202DAFE9B6E40E942C0106
S11300F04AE0BE016F5F7F4F929582958F7089278A
S11301009F7089270E943B0189810E9448008A814F
S11301100E9448008B810E9448008AE00E944800A7
S113012026960FB6F894DEBF0FBECDBFDF91CF91F8
S1130130089514BC82E085BD16BC08951092850014
S11301401092840085E48093810081E280936F00A3
S11301507894089585B1823049F02FE986E891E0DA
S1130160215080409040E1F700C0000095B182E04A
S1130170892785B908950E9499000E949E0087E608
S113018090E00E94500082E084B9CFE6D0E02FE7EF
S11301908AE196E0215080409040E1F700C00000E1
S11301A086B5843118F00E94AA0016BC809104011F
S11301B0823069F7809102019091030190930101CB
S11301C08093000180910001909101010E946000E0
S11301D0109203011092020110920401888181623D
S11301E08883D5CF1F920F920FB60F9211248F934D
S11301F09F93EF93FF9380910401811109C01092A2
S1130200850010928400E1E8F0E080818F7B808398
S113021080910401813091F480918600909187004F
S11302209093030180930201E1E8F0E0808180640F
S11302308083EFE6F0E080818E7D808380910401ED
S11302408F5F80930401FF91EF919F918F910F90A5
S11302500FBE0F901F901895A29FB001B39FC001CD
S1130260A39F700D811D1124911DB29F700D811DDE
S11302701124911D0895BB274A3031F4992322F4A7
S1130280BDE2909581959F4F0C944701BB27FB01DC
S11302905527AA27880F991FAA1FA41710F0A41B7B
S11302A083955051B9F7A05DAA3308F0A95DA193D5
S11302B0009779F7B111B1931192CB010C946001BD
S11302C0DC01FC01672F71917723E1F7329704C0B9
S11302D07C916D9370836291AE17BF07C8F3089544
S10702E0F894FFCFBC
S9030000FC
